{
  "_format": "hh-sol-artifact-1",
  "contractName": "Survey",
  "sourceName": "contracts/Survey.sol",
  "abi": [
    {
      "inputs": [],
      "stateMutability": "nonpayable",
      "type": "constructor"
    },
    {
      "anonymous": false,
      "inputs": [
        {
          "indexed": true,
          "internalType": "uint256",
          "name": "index",
          "type": "uint256"
        },
        {
          "indexed": false,
          "internalType": "string",
          "name": "text",
          "type": "string"
        }
      ],
      "name": "QuestionCreated",
      "type": "event"
    },
    {
      "anonymous": false,
      "inputs": [
        {
          "indexed": true,
          "internalType": "uint256",
          "name": "index",
          "type": "uint256"
        },
        {
          "indexed": true,
          "internalType": "address",
          "name": "responder",
          "type": "address"
        },
        {
          "indexed": false,
          "internalType": "uint8",
          "name": "score",
          "type": "uint8"
        }
      ],
      "name": "ResponseSubmitted",
      "type": "event"
    },
    {
      "inputs": [],
      "name": "admin",
      "outputs": [
        {
          "internalType": "address",
          "name": "",
          "type": "address"
        }
      ],
      "stateMutability": "view",
      "type": "function"
    },
    {
      "inputs": [
        {
          "internalType": "string",
          "name": "_text",
          "type": "string"
        }
      ],
      "name": "createQuestion",
      "outputs": [],
      "stateMutability": "nonpayable",
      "type": "function"
    },
    {
      "inputs": [],
      "name": "getQuestionCount",
      "outputs": [
        {
          "internalType": "uint256",
          "name": "",
          "type": "uint256"
        }
      ],
      "stateMutability": "view",
      "type": "function"
    },
    {
      "inputs": [
        {
          "internalType": "uint256",
          "name": "_index",
          "type": "uint256"
        }
      ],
      "name": "getQuestionStats",
      "outputs": [
        {
          "internalType": "string",
          "name": "text",
          "type": "string"
        },
        {
          "internalType": "uint32",
          "name": "totalResponses",
          "type": "uint32"
        },
        {
          "internalType": "uint32",
          "name": "average",
          "type": "uint32"
        },
        {
          "internalType": "uint8",
          "name": "highest",
          "type": "uint8"
        },
        {
          "internalType": "uint8",
          "name": "lowest",
          "type": "uint8"
        }
      ],
      "stateMutability": "view",
      "type": "function"
    },
    {
      "inputs": [
        {
          "internalType": "uint256",
          "name": "",
          "type": "uint256"
        }
      ],
      "name": "questions",
      "outputs": [
        {
          "internalType": "string",
          "name": "text",
          "type": "string"
        },
        {
          "internalType": "uint32",
          "name": "totalResponses",
          "type": "uint32"
        },
        {
          "internalType": "uint32",
          "name": "totalScore",
          "type": "uint32"
        },
        {
          "internalType": "uint8",
          "name": "highest",
          "type": "uint8"
        },
        {
          "internalType": "uint8",
          "name": "lowest",
          "type": "uint8"
        },
        {
          "internalType": "bool",
          "name": "exists",
          "type": "bool"
        }
      ],
      "stateMutability": "view",
      "type": "function"
    },
    {
      "inputs": [
        {
          "internalType": "uint256",
          "name": "_index",
          "type": "uint256"
        },
        {
          "internalType": "uint8",
          "name": "_score",
          "type": "uint8"
        }
      ],
      "name": "submitResponse",
      "outputs": [],
      "stateMutability": "nonpayable",
      "type": "function"
    }
  ],
  "bytecode": "0x608060405234801561000f575f80fd5b505f80546001600160a01b03191633179055610bb48061002e5f395ff3fe608060405234801561000f575f80fd5b506004361061006f575f3560e01c8063b3580c1e1161004d578063b3580c1e146100da578063dd41cc2f146100ed578063f851a440146100fe575f80fd5b806331b1b9781461007357806393e86511146100a1578063970e5bd8146100b6575b5f80fd5b6100866100813660046107e1565b610142565b6040516100989695949392919061083b565b60405180910390f35b6100b46100af366004610885565b610237565b005b6100c96100c43660046107e1565b61049e565b6040516100989594939291906108b8565b6100b46100e836600461090c565b610614565b600154604051908152602001610098565b5f5461011d9073ffffffffffffffffffffffffffffffffffffffff1681565b60405173ffffffffffffffffffffffffffffffffffffffff9091168152602001610098565b60018181548110610151575f80fd5b905f5260205f2090600202015f91509050805f018054610170906109b7565b80601f016020809104026020016040519081016040528092919081815260200182805461019c906109b7565b80156101e75780601f106101be576101008083540402835291602001916101e7565b820191905f5260205f20905b8154815290600101906020018083116101ca57829003601f168201915b5050506001909301549192505063ffffffff8082169164010000000081049091169060ff680100000000000000008204811691600160481b81048216916a01000000000000000000009091041686565b60015482106102805760405162461bcd60e51b815260206004820152601060248201526f24b73b30b634b21038bab2b9ba34b7b760811b60448201526064015b60405180910390fd5b60018160ff1610158015610298575060058160ff1611155b6102e45760405162461bcd60e51b815260206004820152601260248201527f53636f7265206d75737420626520312e2e3500000000000000000000000000006044820152606401610277565b5f600183815481106102f8576102f86109ef565b905f5260205f209060020201905080600101600a9054906101000a900460ff166103645760405162461bcd60e51b815260206004820152601760248201527f5175657374696f6e20646f6573206e6f742065786973740000000000000000006044820152606401610277565b600181810180545f9061037e90849063ffffffff16610a17565b92506101000a81548163ffffffff021916908363ffffffff1602179055508160ff168160010160048282829054906101000a900463ffffffff166103c29190610a17565b92506101000a81548163ffffffff021916908363ffffffff1602179055508060010160089054906101000a900460ff1660ff168260ff1611156104245760018101805468ff000000000000000019166801000000000000000060ff8516021790555b600181015460ff600160481b9091048116908316101561045f5760018101805469ff0000000000000000001916600160481b60ff8516021790555b60405160ff83168152339084907f9520b7cf4764f7f558c709e3fc7a07654d842f4f7c59490e988aaa73da952e219060200160405180910390a3505050565b60605f805f8060018054905086106104eb5760405162461bcd60e51b815260206004820152601060248201526f24b73b30b634b21038bab2b9ba34b7b760811b6044820152606401610277565b5f600187815481106104ff576104ff6109ef565b5f9182526020822060016002909202019081015490925063ffffffff16610526575f610546565b60018201546105469063ffffffff80821691640100000000900416610a3b565b60018301548354919250839163ffffffff821691849160ff680100000000000000008304811692600160481b900416908590610581906109b7565b80601f01602080910402602001604051908101604052809291908181526020018280546105ad906109b7565b80156105f85780601f106105cf576101008083540402835291602001916105f8565b820191905f5260205f20905b8154815290600101906020018083116105db57829003601f168201915b5050505050945096509650965096509650505091939590929450565b5f5473ffffffffffffffffffffffffffffffffffffffff16331461067a5760405162461bcd60e51b815260206004820152600a60248201527f4f6e6c792061646d696e000000000000000000000000000000000000000000006044820152606401610277565b6040805160c0810182525f602082018190529181018290526060810182905282815260ff6080820152600160a0820181905280548082018255925280519091829160029091027fb10e2d527612073b26eecdfd717e6a320cf44b4afac2b0732d9fcbe2b7fa0cf6019081906106ef9082610ab5565b5060208201516001918201805460408501516060860151608087015160a09097015163ffffffff95861667ffffffffffffffff199094169390931764010000000095909216949094021769ffff000000000000000019166801000000000000000060ff9485160269ff000000000000000000191617600160481b9390951692909202939093176aff0000000000000000000019166a0100000000000000000000911515919091021790915580546107a69190610b75565b7fa5fbefdc56bf0d2d586a82a9f50784dfe29ae6d3cfe3e0491131259d4f2042ee836040516107d59190610b8e565b60405180910390a25050565b5f602082840312156107f1575f80fd5b5035919050565b5f81518084525f5b8181101561081c57602081850181015186830182015201610800565b505f602082860101526020601f19601f83011685010191505092915050565b60c081525f61084d60c08301896107f8565b63ffffffff978816602084015295909616604082015260ff938416606082015291909216608082015290151560a09091015292915050565b5f8060408385031215610896575f80fd5b82359150602083013560ff811681146108ad575f80fd5b809150509250929050565b60a081525f6108ca60a08301886107f8565b63ffffffff968716602084015294909516604082015260ff9283166060820152911660809091015292915050565b634e487b7160e01b5f52604160045260245ffd5b5f6020828403121561091c575f80fd5b813567ffffffffffffffff80821115610933575f80fd5b818401915084601f830112610946575f80fd5b813581811115610958576109586108f8565b604051601f8201601f19908116603f01168101908382118183101715610980576109806108f8565b81604052828152876020848701011115610998575f80fd5b826020860160208301375f928101602001929092525095945050505050565b600181811c908216806109cb57607f821691505b6020821081036109e957634e487b7160e01b5f52602260045260245ffd5b50919050565b634e487b7160e01b5f52603260045260245ffd5b634e487b7160e01b5f52601160045260245ffd5b63ffffffff818116838216019080821115610a3457610a34610a03565b5092915050565b5f63ffffffff80841680610a5d57634e487b7160e01b5f52601260045260245ffd5b92169190910492915050565b601f821115610ab057805f5260205f20601f840160051c81016020851015610a8e5750805b601f840160051c820191505b81811015610aad575f8155600101610a9a565b50505b505050565b815167ffffffffffffffff811115610acf57610acf6108f8565b610ae381610add84546109b7565b84610a69565b602080601f831160018114610b16575f8415610aff5750858301515b5f19600386901b1c1916600185901b178555610b6d565b5f85815260208120601f198616915b82811015610b4457888601518255948401946001909101908401610b25565b5085821015610b6157878501515f19600388901b60f8161c191681555b505060018460011b0185555b505050505050565b81810381811115610b8857610b88610a03565b92915050565b602081525f610ba060208301846107f8565b939250505056fea164736f6c6343000818000a",
  "linkReferences": {},
  "deployedLinkReferences": {}
}